:020000040000FA
:020000009B283B
:040002000034003492
:080008008A014B28500065003D
:1000100074006500720020005300680061006200F7
:1000200069006E006F002000300034004E006F0049
:10003000760031003800200063006F006400650026
:10004000200066006F00720020004D006100640017
:100050002000430061007400200042006100630042
:100060006B007000610063006B00200056003100DF
:1000700020007700770077002E007700690072007B
:100080006500320077006900720065002E006F0085
:1000900072006700210088010B1D8D28A80A031D2E
:1000A0006A282108031D8C122008031D8E112208C6
:1000B000031D0C122308031D0E102408031D8E10AF
:1000C0002508031D0E112608031D8E122708031D87
:1000D0000E128A2828082102031C8C1628082002E8
:1000E000031C8E1528082202031C0C162808230264
:1000F000031C0E1428082402031C8E142808250251
:10010000031C0E1528082602031C8E162808270239
:10011000031C0E167D3095000B11111C9A2811102E
:100120002908031D96282A0803199A280130A902D4
:10013000031CAA03090088018B017D3095009901F9
:10014000111031309800FF309B003E309C009A0126
:100150005530AD00AE00AF00B000A001A101A2017A
:10016000A301A401A501A601A701033088008C0109
:100170008E010230880030308C003F3000308E001D
:10018000013088008C018E0178309900D8309500BC
:1001900011148801E0308B00872AA722A9002908C2
:1001A000031DCF28A7221F390B005A2A482A232AC9
:1001B000FE29B9298E292129F628482A482A5A2AAF
:1001C000232AFE29B9298E292129482A482A482A82
:1001D000482A232AFE298E29482A482A482A5A2AA8
:1001E000232AFE29B9298E292129CD28A722B20048
:1001F000A722C622A200A722C622A300A722C622A7
:10020000A400A722C622A500A722C622A600A722D4
:10021000C622A700A722C622A100A722C622A000AC
:10022000A722073903190130BD22B20BF828FF308D
:10023000A200A300A400A500A600A700A100A000A2
:10024000CD28A72207390138B2000F30AB002B08A8
:10025000C622A200A700A722033903190130BD223C
:10026000AB032B08073A031D27292B08C622A2003F
:10027000A7002B08083EC622A300A600A722033928
:1002800003190130BD22AB0B3529A201A7010830AB
:10029000AB002B08C622A300A600A722033903192E
:1002A0000130BD22AB0B49292B08C622A300A600B2
:1002B000A722033903190130BD22AB0A2B08093AE2
:1002C000031D54292B08C622A300A60008302B02C8
:1002D000C622A200A700A722033903190130BD22BC
:1002E000AB0A2B080F3A031D6229FF30A300A600BA
:1002F0000830AB002B08C622A200A700A7220339B2
:1003000003190130BD22AB0A2B080F3A031D7A29CD
:10031000FF30A200A700B20B2529CD28A72207395C
:100320000138B2000F30AB002B08C622A10001300B
:10033000BD22AB0B9429F030AB002B08C622A100E4
:100340000130BD22AB0F9D290F30AB002B08C62218
:10035000A0000130BD22AB0BA629F030AB002B086A
:10036000C622A0000130BD22AB0FAF29B20B9229EB
:10037000CD28A72207390138B2000F30AB002B0877
:10038000C622A6000130BD22AB0BBF29F030AB0066
:100390002B08C622A6000130BD22AB0FC8290F30A2
:1003A000AB002B08C622A300A500A7000130BD2288
:1003B000AB0BD129F030AB002B08C622A300A5005F
:1003C000A7000130BD22AB0FDC290F30AB002B089A
:1003D000C622A200A400A6000130BD22AB0BE72973
:1003E000F030AB002B08C622A200A400A60001300A
:1003F000BD22AB0FF229B20BCF29CD282030A700A8
:100400000830BD22FF30A7002030A6000830BD22F2
:10041000FF30A6002030A5000830BD22FF30A50027
:100420002030A4000830BD22FF30A4002030A300FB
:100430000830BD22FF30A3002030A2000830BD22CA
:10044000FF30A200CD282030A2000830BD22FF30AE
:10045000A2002030A3000830BD22FF30A3002030CE
:10046000A4000830BD22FF30A4002030A5000830D1
:10047000BD22FF30A5002030A6000830BD22FF308D
:10048000A6002030A7000830BD22FF30A700CD28ED
:100490002F1CA101AF1CA0012F1C522AAF1C522AF5
:1004A000A101A001A7227F390338BD22FF30A1009E
:1004B000A000CD280F30AB002B08C622A100A00061
:1004C0000730BD22AB0B5C2AA101A001A7223F3956
:1004D0000138A9002908031D6A2A0F30AB002B0838
:1004E000C622A200A300A400A500A600A700073012
:1004F000BD22AB0B6F2AA201A301A401A501A60195
:10050000A701A7221038A9002908031D842AF0306A
:10051000AB002B08C622A200A300A400A500A600E1
:10052000A7000730BD22AB0F892AA7223F39013827
:10053000A9002908031D992AF030AB002B08C62218
:10054000A100A0000730BD22AB0F9E2ACD280830A5
:10055000B1002C102D182C142D19AC092D1BAC0931
:10056000AD1BAC0903102C180314B00CAF0CAE0C6F
:10057000AD0CB10BA92A2D080800AC009A0191100E
:10058000911CC02A9110AC0BC02A08000F390B0037
:1005900000340134033407340B3412341E3428344D
:1005A00032344134503464347D34A034C834FF34A0
:0205B000080041
:020000040001F9
:02000E00043FAD
:02001000FF37B8
:00000001FF
